:020000040001F9
:10800000902F0020F58001000F81010011810100F7
:108010000000000000000000000000000000000060
:1080200000000000000000000000000013810100BB
:108030000000000000000000158101001781010010
:108040001981010019810100058401007583010077
:10805000198101000000000009820100198101005E
:1080600019810100198101001981010019810100A4
:108070001981010019810100198101001981010094
:108080001981010055830100198101001981010046
:1080900085830100198101008D8301001981010090
:1080A000198101001981010000000000000000009A
:1080B00000000000000000000000000000000000C0
:1080C0000348854600F08EF8004800472DAB0100BC
:1080D000902F0020401E00BF00BF00BF00BF00BFA8
:1080E00000BF00BF00BF00BF00BF00BF00BFF1D195
:1080F000704700000321094802680A4302600848EB
:1081000002680A4302600748804707480047FEE7C5
:10811000FEE7FEE7FEE7FEE7FEE70000240500407D
:1081200054050040B1830100C180010030B50B4609
:10813000014600202022012409E00D46D5409D4241
:1081400005D31D469540491B2546954040191546C7
:10815000521E002DF1DC30BD70B5002425460028EC
:1081600001DA01244042002901DA01254942FFF7E2
:10817000DDFFAC4200D04042002C00D0494270BD2F
:1081800003460B439B0703D009E008C9121F08C030
:10819000042AFAD203E00B780370401C491C521EDB
:1081A000F9D27047D2B201E00270401C491EFBD2E6
:1081B00070470022F6E710B513460A4604461946F2
:1081C000FFF7F0FF204610BD30B5044600200346FF
:1081D00000E05B1C934203D2E05CCD5C401BF8D016
:1081E00030BD0000064C0125064E05E0E36807CCD3
:1081F0002B430C3C98471034B442F7D3FFF764FF8D
:10820000B8C10100D8C10100F8B50024FF2501352F
:10821000012627460094284602F07AFF002808D05D
:1082200034484068304204D0334800212818344391
:1082300001602D1D76007F1CADB2042FEBD3FF2013
:108240007D3002F065FF002807D02C480021016036
:10825000400704432A48006900902A4F200712D0A3
:108260000126002526420AD02748AA0011180869CD
:108270000969C004C00E8903BA58890F9047760077
:108280006D1C042DEED3002C30DA00241D4E00218D
:10829000301940304156491C25D00778BD06AD0E37
:1082A000284601F021FA80003658002E1BD0BF0965
:1082B0000121A940154AA80080180068009A80038F
:1082C000800F114202D0022802D00CE003280AD10C
:1082D000032F05D102280AD00221284602F008FF08
:1082E00039462846B047641C042CCFD3F8BD03217F
:1082F000F3E7000000630040006000407C61004044
:1083000000050050102600200065004000070050C6
:108310008307FF22DB0E9A408907090E9940002847
:108320000BDA0007000F0838830808489B0018186C
:10833000C36993430B43C3617047830804489B00A0
:108340001B181868904308431860704700ED00E060
:1083500000E400E010B5064900200860486088602D
:10836000C860034940390860486003F0A9FC10BDAB
:108370004011014010B50021014802F035FE10BD4A
:108380000030004010B503F031FC10BD10B50748B7
:108390004068002807D08047002803D000221146FB
:1083A00000F08AFA10BD02F029FA10BDEC2000207E
:1083B00010B502F071FA002805D00E490C4848604B
:1083C000C8130D4988610D48018CC9B201290ED12D
:1083D000818C09070BD1018D0906090F042906D1EB
:1083E000808D0006000F02D105490120886010BD74
:1083F000DFFF07C000050040006C0040C00F00F028
:1084000000060040F0B53C4D012185B049022846E8
:1084100002F092FE01270026384C002823D0FF21CD
:108420002531284602F083FE00281CD0FF2025308D
:108430002E508120324980008860607D002800D164
:108440006F600221684601702E4908680860039039
:10845000E17C68460172E0680190E67406CC6846EB
:10846000083C90471DE00421284602F065FE0028E4
:1084700017D0FF210931284602F059FE002810D0FC
:1084800003F08CF9E07C217D88420AD1607D0028D0
:1084900000D16F6081201A4980008860207D03F040
:1084A000ADF9FF211D31284602F041FE00280DD014
:1084B000A07C218A884202D903F044FC06E0FF2117
:1084C0001D316E50002801D003F064FCFF214531BE
:1084D000284602F02CFE00280CD0FF2045302E50FC
:1084E000607D002800D02F60E07C002802D0207D35
:1084F00003F084F905B0F0BD0020004058260020AC
:10850000002300408024004030B47446641E257867
:10851000641CAB4200D21D46635D5B00E31830BCB7
:10852000184702E008C8121F08C1002AFAD1704794
:108530007047002001E001C1121F002AFBD17047E3
:108540004079182148430249401801218171704740
:108550005427002010B5417918225143134A0B24A7
:1085600089180368E401CA791B199A60026801231B
:10857000136208220A74FF221D324A820368002413
:108580009C5042790A4B92009A58091D002A0AD041
:108590000368032424021B190A699A6080220A6175
:1085A000016809194A6003F005FC10BD542700203A
:1085B00098200020F7B584B000251688074615805E
:1085C000406B1446002813D003780598032E51D32E
:1085D0000221017021881122491C89B22180425454
:1085E0002188491C89B2218043542088401C208066
:1085F000386B00281DD005462088059902461232A6
:10860000B24237D811220A5420881022401C80B26E
:1086100020800A542088401C20800F202A5C238858
:10862000401ECA54228840B2521C22800028F5DA2B
:108630000025384620300290807B002806D0334643
:108640002246059902F074F9050014D10298407B86
:10865000002806D032462146059800F0CFFC0500E0
:1086600009D1B878002823D0059886462088001DB7
:10867000B04202D90C2007B0F0BD684679DF00286F
:10868000F9D1218803207246505420881921401CBA
:1086900080B22080115420887146401C80B2208016
:1086A00041186846008803F0E1FB218840182080CB
:1086B000F878002817D0218803230A46FB56C91CE6
:1086C0000598B142D6D80221815421880122491C43
:1086D00089B2218042542188491C89B221804354A7
:1086E0002088401C20807868002817D0218800232B
:1086F000C3560A46C91C0598B142BBD80221815411
:1087000021880A22491C89B2218042542188491CAF
:1087100089B2218043542088401C20803889002859
:108720000AD0009438460196062202210830059BA3
:1087300003F01BFC05009ED1388A00280AD0009463
:1087400038460196072203211030059B03F00DFCEB
:10875000050090D1388B00280AD000943846019645
:10876000152214211830059B03F0FFFB050082D170
:10877000386A002806D033462246059901F014F9DC
:108780000500D8D1786A002806D0334622460599DC
:1087900002F092FA0500CED10298007B002807D0A3
:1087A000334622463846059903F03CF80500C2D10D
:1087B0003878002807D0334622463846059902F01B
:1087C000AFFA0500B7D1284655E710B501220221BE
:1087D000002000F0B5FD002801D0072812D10722A3
:1087E0000221012000F0ACFD002801D0072809D1AA
:1087F00000210A22084600F0A3FD002801D0072826
:1088000000D1002010BD0000044842680121C905C4
:108810000B46934383600A40C260704700050050D6
:1088200070B50024064D06E06968E000085C01218F
:1088300002F0FCFA641C28788442F5D3002070BD55
:10884000B8200020F8B515460C460646052A01D288
:108850000720F8BD02F0C0FB002803D102F092FB14
:108860000028F6D1104900204E600C70C8608D6061
:1088700008610E4D0DE0E000696880190091817873
:108880006A46517000780A4A694602F01FFB0028C8
:10889000DFD12046641EE4B20028ECD1054A002155
:1088A000024800F043F8F8BDB8200020B0C1010034
:1088B00035A70100759B0100BFF34F8F04490348A2
:1088C000C860BFF34F8F00BFFDE700000400FA054A
:1088D00000ED00E0014B1B6818470000EC2500206C
:1088E00038B50C46A2680C235A43064B09789D58AC
:1088F000054A126A00920246204608302369A847BA
:1089000038BD00003C2700207420002010B5064927
:1089100014230A785A435118091DFFF7E1FF042078
:1089200002F0E2FF10BD000070260020094B9B689A
:10893000002B07D0002A07D0002805D00068037C50
:10894000002B03D008207047072070474174426114
:1089500000207047CC200020FFB59007002581B093
:1089600014460E46002832D11B4F002C31D002F0A5
:10897000C3FE0498786103203870334618212246DC
:1089800000204B43BC601834C10089180D704D7035
:108990008E704C601C19401C0328F5DBFD607D7057
:1089A00001240E48BD702405046003211420FFF744
:1089B000AFFC0B4804600B4C0198A0600321112010
:1089C000FFF7A6FC60683861002005B0F0BD072005
:1089D000FBE7BD60FBE70000CC20002080E200E068
:1089E00000E100E000150140FEB50D461B491746A9
:1089F0008968044600292AD0002C28D0052D01D2F0
:108A00000720FEBD6069002821D0607C012820D0AD
:108A1000002603F06DFAC0001049019089684018E3
:108A2000694603F08FFA002815D0012101700C4926
:108A3000446049680830E2C00849019889684118D3
:108A400068460078487003F013F90020FEBD082046
:108A5000FEBD2E46DDE70420FEBD0000CC20002038
:108A600000150140F8B5134D0446A96800291CD033
:108A7000002C1AD06069002817D00026267403F055
:108A800037FAC700A8686946381803F05BFA00286F
:108A90000DD0022101704460A8683918684600783A
:108AA000487003F0E5F83046F8BD0820F8BD042012
:108AB000F8BD0000CC200020F0B50C4693B01F217B
:108AC0006A461180072600279180002809D0C178C6
:108AD00049070DD502A9FFF76DFD002809D102ADA8
:108AE00001E000251780002C0ED0E078002802D08D
:108AF000304613B0F0BD01AA0AA92046FFF75AFD7F
:108B00000028F6D10AAA02E068460022878068465B
:108B10008088C3B268460088C1B2284672DFE8E7A1
:108B200070B50D4604991646040042D0002E40D080
:108B3000424800224271C36001612422314640480C
:108B4000FFF71EFB00F0D0F83D49343108461038DD
:108B500001602031816038215C38FFF72AFB3848FA
:108B6000217838380170A1788170E178C17061781E
:108B700041706269216942610161E268A168C26075
:108B800081600146E369A269CB618A61616A00295B
:108B900019D00146AC310246B83241628A60636A3C
:108BA0001B880B80616A436A898899800021436A27
:108BB00006E00E2070BD666AB668765C5654491CA5
:108BC0009E888E42F7D8A16A00291CD01C4AAC327C
:108BD00011460C398A608162A36A9B888B80A16AE6
:108BE000836A098819800021836A04E0A66AB6684E
:108BF000765C5654491C9E888E42F7D82C210A5D1B
:108C00000F4918390A73216A002909D00B49143118
:108C10000162226A52884A80216A026A09881180A8
:108C20006168002904D00549891D4160616841607F
:108C3000034829463838FFF73FFF70BD2820002041
:108C4000B823002010B502881A4C102A17D0002132
:108C5000112A17D0192A11D1807900280ED16079F4
:108C600001281BD002281FD003281FD0042805D1BB
:108C70002171E2680846002A00D0904710BD808824
:108C8000208110BD6170808821898842F9D101203E
:108C900005E021690029F4D0884710BD022000F0CA
:108CA0004BF80028F5D110BD0320F8E70320207110
:108CB0000420F4E72820002010B5022801D0032862
:108CC0000ED1084C207800280AD00020207060794E
:108CD00000F032F8002803D02169002900D088472D
:108CE00010BD00002820002010B507210148FFF723
:108CF00060FA10BD4020002010B50D480078012812
:108D000014D10C4C6078002810D16079002802D072
:108D100074DF00280BD101206070607900F00CF83E
:108D2000002803D02169002900D08847002010BD09
:108D3000B823002028200020F0B5754C87B0607162
:108D4000002606A8069602F08FFA0127082806D00A
:108D500000286FD10698002802D02770D4E006962C
:108D6000FFF7C2FF6B4D6878002802D060790128B8
:108D700005D0A87800280AD06079022807D1E168D8
:108D8000002903D0E7700820884700E0E67060798A
:108D9000012808D16878002809D05D48193002F010
:108DA0001FFA002803D06079022802D00CE00220CC
:108DB0006071A878002805D05548193002F010FAE3
:108DC000002801D103206071287B002804D160793C
:108DD000032801D104206071287E002804D1607925
:108DE000042801D166712671E16800290AD06079F2
:108DF000032801D0042805D12878002802D0607803
:108E0000002818D0A67018216846FFF7D2F96846E6
:108E10000670019606720396607901280FD0022829
:108E200016D03C4E243637465C3F03281CD004281D
:108E30005ED13BE069E0A77007208847E3E734484C
:108E4000183001906846077046820682277152E00A
:108E50002F48183001906846077029894182A988F7
:108E600001820220207146E0A88A69464882288A49
:108E700008822848243003F0E7F8002805D0287835
:108E8000002802D06078002801D003202FE00220C3
:108E90006946087204200396F8701E48002138388D
:108EA000FFF70AFE002830D1052020E0A88B694694
:108EB0000882288C48821748243003F0C5F800281F
:108EC00005D02878002802D06078002801D004203E
:108ED0000DE002206946087204200396F8700D48E0
:108EE00000213838FFF7E8FD00280ED10620207158
:108EF0006079002803D0684673DF002805D1E16857
:108F0000002901D020798847002007B0F0BD00007B
:108F100028200020B823002070B5054601461C22F9
:108F20000E48FFF72DF90E4C0026267029680029FF
:108F300006D00822201DFFF723F9201D7ADF02E06A
:108F40000748001D7BDF002807D1401E6080667047
:108F5000044A00210448FFF7E9FC70BDA424002066
:108F6000482000208DBE010094C00100F8B5214CBE
:108F7000028800271E4DE689102A15D01E49112AA5
:108F800021D0122A2DD0502A1CD1C288801DB24275
:108F900018D1028B022A15D1C27E837E100218439B
:108FA000C007C00F0CD112E08188698001461048CB
:108FB000082216310C30FFF7E3F86F70002E01D154
:108FC00000F03CFDF8BD0020C04368806F70086869
:108FD000FFF748FD0028F5D0A1690029F2D08847A5
:108FE000F8BD811D024808220C30FFF7C9F8E7E7F9
:108FF00048200020A424002094C001007CB5054630
:1090000008880C460930904201D90C207CBD684686
:1090100071DF0028FAD121880820685420881B219C
:10902000401C80B220802954208800A9401C80B2B6
:109030002080401906220131FFF7A2F820886946F6
:10904000801D80B220800978002900D00121295498
:109050002088401C208000207CBD000070B50446A4
:1090600000F0BAFE2046FFF781FF204600F09EF890
:1090700020880C4D102802D011280ED10AE00720BC
:1090800000F082F9002803D000221146FFF714FCFB
:10909000A08801E00020C04368802046FFF7D2FD91
:1090A00070BD0000002000201CB500234822154997
:1090B000082002F04DFC002803D000221146FFF7E3
:1090C000FBFB002000900190012069460870684673
:1090D00060DF002803D000221146FFF7EDFB0A48AD
:1090E00002F02CFC002803D000221146FFF7E4FB1D
:1090F000064802F045FC002803D000221146FFF785
:10910000DBFB1CBDCC2200205D900100C1BB010037
:109110001CB5044681786A460C4802F0B9F800286C
:1091200012D160781C21484309491C2340181A4673
:10913000694602F073F9064806494C30807A80008F
:109140000A582146684690471CBD00006C2000204C
:10915000A0250020ACC001007CB5134E00250C46B4
:109160003060002918D06946002000F0B5F80028CA
:1091700019D101A9012000F0AFF8002813D16846E9
:1091800001790020002901D0022004E06946097815
:10919000002900D00B2020707068002802D1FFF752
:1091A00014FB054628467CBD2020002010B51C4C31
:1091B0000188606810290DD011290AD1401E606015
:1091C00007D1FFF702FB002803D02168002900D057
:1091D000884710BD00281ED100210122084600F05A
:1091E000AFF8002801D0072811D107220221012061
:1091F00000F0A6F8002801D0072808D10422022197
:10920000002000F09DF8002805D0072803D0216831
:10921000002900D088476068401C606010BD0000D5
:109220002020002010B5032000F008FA002801D00B
:10923000062800D1002010BDF8B5074600242348B9
:1092400002E0641C042C1AD2A2008258BA42F8D15F
:10925000042C14D21D481E4E0C38002929D0012997
:109260000ED002290BD16000201880194578002DFE
:1092700005D018480169002901D028468847F8BD63
:1092800061006118755C8E19717800290CD0114944
:109290000A224968806851430E4A521CFFF7A4FB1A
:1092A000002801D10B4847700A48B17814300155A5
:1092B000DDE78068FFF7D6FB0648610061181430CF
:1092C0008919005D8D78A842D1D0F8BD64C0010035
:1092D000542300200820002004280CD2074A1269D9
:1092E000074B80001B5C01209840904300D0012078
:1092F0000870002070470020FAE7000000050050C9
:1093000064C0010010B5042806D0072810D00A2830
:1093100001D102F0CEFA10BD08481321408876DF53
:1093200008E00028F7D000221146FFF7C5FA10BD6B
:10933000FFF7E2FC0828F4D110BD00000020002057
:1093400070B50023042811D2440004190D4D012AE0
:1093500002D101290DD0002246008019094E801942
:1093600000290CD0012906D0022906D0072318466F
:1093700070BD0D30C2B22A55F9E74270F7E782702E
:10938000F5E700005423002010B5054A0146127A83
:109390000020D20702D0084600F054F810BD0000AB
:1093A0000820002070B50E46204905464E608D60AD
:1093B00000200A61A9071ED500240122114620467B
:1093C000FFF7BEFF641C042C02D20028F5D012E087
:1093D000002810D1720804211548FFF733FA00283D
:1093E00009D1FFF71DFA002805D11148114A0021C3
:1093F0001438FFF79BFAE90706D00F220E495205F1
:109400008A600023CB608A6100280DD108480B4A8E
:1094100000211C38FFF78AFA002805D10448084AC1
:1094200001211838FFF782FA70BD000008200020E3
:1094300074C00100799601000005005085A9010063
:1094400009880100FEB57A4D0722EB6892059A4320
:1094500002936B6800939C0006461B1900200121B3
:10946000019349050746734C3300FFF74DF8180D7B
:109470001515374755677C887F8891DE9E9E9E9E96
:109480009EC8CED1D8DEDE140F21029A4905914341
:10949000A160E7602F70FEBDA260E76060680F22E8
:1094A00052055040800209D5A160E760022E02D12A
:1094B000E120C0000AE07D20400107E0E160A760F4
:1094C000022E01D1C82001E0FF2091302E706421CE
:1094D000FEF72CFE0099414300223FE0A260E760C6
:1094E00060680F2252055040800204D5A160E760F9
:1094F00019204001EAE7E160A760E3E7A260E760C6
:1095000060680F2252055040800202D5A160E760DA
:10951000D1E7E160A760D7E7A260E76060680F224B
:1095200052055040800202D5A160E76001E0E16091
:10953000A7602E700098410000220FE0A260E76053
:1095400060680F2252055040800202D5A160E7609A
:1095500001E0E160A7602E700099002236480068A3
:10956000FFF742FAFEBDA260E7601BE061680120E0
:10957000800502468A43A2600140E16010E0606815
:10958000012189050A468243A2600840E060E3E7C2
:109590006068012189050A468243A2600840E060B4
:1095A0000199C9E7E160A7602DE023484068FFF713
:1095B00059FA11218A1B01D0002807D00F22E9682F
:1095C00052051140A160E760EF60FEBD0121C905B1
:1095D000E960012A0CD91046C82148436421FEF7EE
:1095E000A5FD69680022414313484068FFF7FCF974
:1095F0000F22E96852051140E160A760FEBD0F210E
:109600004905A160E7602E70FEBD07229205AAE71A
:109610000D214905A160E76001218905C2E7032109
:10962000C905A160E7608910BCE70F214905B9E7CA
:10963000082000200005005058C00100F0B50021AE
:109640000B4C0C4D03273F048A00A2589200561978
:10965000326801238B40034000D00323BA431B042C
:1096600013433360491C0429EED30020F0BD0000F1
:1096700064C001000007005010B500780221FFF718
:10968000DBFD10BD0022D243830004490428CA50E8
:1096900002D30818203002777047000010260020FF
:1096A000F0B50025ED43002A02D00023042601E096
:1096B000042308260B4C04E09F00E7597F1C04D0CC
:1096C0005B1CB342F8D32846F0BD26185DB22036A5
:1096D00035709E00A151002AF5D1E118203108779C
:1096E000F1E7000010260020024909182020085642
:1096F0007047000010260020F8B53E48142201787B
:1097000051430C18E0680C2148433A492769CC3191
:109710004018058941890091241D466801F04AFEE0
:1097200001463846FEF702FD002932D0002000999C
:10973000A2884D436188AE198918CD1900222E499F
:1097400000280A6109D001F035FE6188884222D0E4
:10975000B54202D1A08800281DD0A06803281AD0E5
:1097600001F028FEA188CA1901461046FEF7DEFC6A
:10977000214C8808E06001F01DFE01462846FEF7F6
:10978000D5FC002911D00020B5422FD000280ED0E2
:109790002CE00120CBE701F00DFE01463846FEF734
:1097A000C5FC15494861032021E00120ECE7ADB27A
:1097B000B7B201F0FFFD01463846FEF7B7FC06469A
:1097C00001F0F8FD01462846FEF7B0FC864201D1C3
:1097D000781B09E001F0EEFD064601F0EBFD0146C5
:1097E0002846FEF7A3FC701A80082061022002F0D0
:1097F0007BF8F8BD702600207420002010B50748C3
:1098000014220178514308180079042802D000F08E
:1098100059F810BD012002F067F810BD7026002035
:1098200010B50B481422017851430818094AC18821
:1098300011620079012806D0032801D0042801D143
:10984000FFF75AFF10BD012002F04EF810BD0000D6
:10985000702600207420002014225043054A002165
:1098600080180171C18002220161C26041610181E1
:109870007047000070260020F8B5104C069E6578F1
:109880000A2D19D027787D190A2D00D30A3D1427F7
:109890007D432D1928716A6103C92961E860EB8055
:1098A0002E816078401C607005480078002801D146
:1098B000FFF7B6FF0020F8BD0420F8BD7026002099
:1098C0007420002010B50D4C142120784843011954
:1098D0000020091DFFF704F82078FFF7BDFF60782E
:1098E000401E60702078401CC0B220700A2801D150
:1098F00000202070002001F0F7FF10BD702600202E
:10990000F8B52348C16800293ED00E6821494C684B
:109910000769C078E11B0D022D0AED1C002814D147
:1099200001201D4A000450601B4A403A50601B4908
:10993000400008601A4908601A49012008602F2079
:10994000FEF7C8FB12490120C870B54200D2354667
:10995000E81900020F4B000A403318600D4A5168A5
:10996000001B091B0902090A0002000AC91C8142E6
:1099700009D9506818602F20FEF7ACFB0120074979
:10998000400480390860F8BD01F0B6FEF8BD000063
:10999000CC200020001501404013014080E200E08F
:1099A00000E100E000100140F8B5064610881446BA
:1099B0008446801D0D46984201D90C20F8BD32889E
:1099C0000720062AFAD31927FF01184BBA4201D9FA
:1099D0009A42F3D171880629F0D3B94201D999424C
:1099E000ECD19A4203D0994201D08A42E6D80521AF
:1099F0006046295420881221401C80B220802954BE
:109A00002088401C80B220804119308802F02EFA54
:109A10002188401880B220804119708802F026FA0F
:109A20002188401820800020F8BD0000FFFF0000C2
:109A300010B500221146FEF73FFF10BDF8B51648DD
:109A400000F01CFF144D00260C3D144C002807D0DC
:109A5000616900291CD001206A461070684616E032
:109A60002878002805D06169002911D06846067061
:109A70000DE0687800280DD0A16809480022006830
:109A8000FEF7B2FF002803D0A169002900D0884763
:109A90002E70F8BD6168F0E754200020A424002057
:109AA00094C0010070B5094B04469E7A0820002539
:109AB0000E4207D00648844202D01889A04202D143
:109AC0000020156070BD052070BD0000E02500205D
:109AD000FFFF00000C214843064910B50122401841
:109AE0008272911E0181FF21C1720721FEF761FB85
:109AF00010BD0000E025002010B5134C20790007B0
:109B00001FD46069401C6061E068002801D0042017
:109B100004E000F0E5FE002803D0022002F046F841
:109B200010BD2069002809D06068C10701D003205A
:109B3000F4E70121084360600020EFE7FFF75EFED5
:109B400010BD02F027F810BD7420002010B50848A1
:109B500041680A0708D48A0702D5012211434160EF
:109B6000022002F023F810BD02F014F810BD00002E
:109B700074200020F8B500260124154D23E0696803
:109B8000F0004718387821462A698140114218D0E0
:109B90008A432A6101F0ECF93A782146EB6891405A
:109BA00019400346934099420BD17978012901D09D
:109BB000012100E000217B684140002B01D01046CC
:109BC0009847761CF6B228788642D8D3F8BD0000B4
:109BD000B8200020FEB50E46044681786A46234828
:109BE00001F056FB002826D160780C21204F484315
:109BF000C019807A40061FD4022E1DD0012E1DD020
:109C00001C4DA0781C2148431B49002341181C22ED
:109C10006846A847002813D0022E0CD020780C21CB
:109C2000484313490C314018807A144980000A587F
:109C3000214668469047FEBD114DE2E7114DE0E731
:109C4000022EF8D060780C214843C019817ABF22D7
:109C50001140817260781C21484305494039411800
:109C60001C231A466846A847D8E700006C2000204D
:109C7000E025002019BB0100DC2400209CC001006D
:109C800065B6010085B5010070B50546114A124858
:109C900000241C2363431B189B7EFF2B04D0641CF1
:109CA000072CF6D3104670BD0A78022A09D01C2270
:109CB00062431018FD22827607221030FEF760FA08
:109CC00004E01C2161430818FE2181762C700022DB
:109CD000E8E7000043800000DC240020F7B50525FC
:109CE0000F4F06460024002E0AD01C206043C019E6
:109CF000072231461030FEF767FA002807D00AE045
:109D00001C206043C019018B0298814203D1019845
:109D10000025046002E0641C072CE4D32846FEBD45
:109D2000DC2400207CB5054681B26A46074801F074
:109D3000AFFA040008D17421684601F0D5FA040096
:109D400002D1284601F058FA20467CBD6C20002044
:109D500010B5100003D000221146FEF7ADFD002023
:109D600010BD00001FB56946087301F029FB0028EB
:109D700003D000221146FEF79FFD03A800F026FA4B
:109D8000002803D000221146FEF796FD01A8052108
:109D90000130FEF70EFA6946487901221043E121AD
:109DA0000840DF210C30084069464871072088715F
:109DB0001020C871064800900A71064800F02EFB7A
:109DC000002803D000221146FEF776FD1FBD0000DB
:109DD000519D010000200020F0B5054693B0002001
:109DE0000290FF24ED480E94007800284BD0EC4FF1
:109DF0003868002847D001A800F0DAF9002803D01D
:109E000000221146FEF758FD281D05902A206946BC
:109E10000883FF20002688710E710396E04C288885
:109E20000C3C10280ED0A88803AA0221FFF73AFEA6
:109E3000002807D103980C2141430919CA7A6946C1
:109E40008A7148712888132217287CD00FDC1028CB
:109E50001BD0112853D0132876D0142813D103987F
:109E60000C2148430019C07AFF2871D08DE0CD49FC
:109E700018286BD01C286AD0522804D1B87A8000E8
:109E8000095801A8884713B0F0BDC74F03AA0121A4
:109E90003846FFF707FE0028F5D103990C20484308
:109EA00002220019827211236A4613745171A98823
:109EB00001810722A91DFEF763F9287DC10707D09C
:109EC0004108B6480830405CFF2808D00E9006E0F4
:109ED0003A460EA9A81DFFF701FF00280ED10399ED
:109EE0000C22514309190E98C8728A7A08231A4322
:109EF0008A726946887101A8FFF70AF939E1039867
:109F00000C2148430119887AFD221040887201070C
:109F100006D5C0090DD0002101A8FFF75BFE08E0BF
:109F200068468079FF2804D001F066F9FF20694671
:109F3000887103980C22504310210019817212205D
:109F40006946087415E17FE030E001E0D5E00EE1FC
:109F5000EA890EA90020FFF7C1FE00280ED1039860
:109F60000C22504300190E99C172837A08221343C0
:109F700083726846817101A8FFF7CAF803980C2123
:109F800048430019C07AFF2806D003981C21484393
:109F900083494C394018029003981C214843834957
:109FA0004218A8880023029982DF6CE76846027491
:109FB000039B0C2058430119887A042210438872AD
:109FC000C87AFF2830D016206946087424204343FD
:109FD00073481A21303818180830FEF7EAF8039849
:109FE0000C2148430019817A402211438172039960
:109FF0000C2200204A430A901219D27A1C235A4399
:10A000006A4B0C90D2180B921C2251431A46C43250
:10A0100089180791089009903A1DA88807AB00217C
:10A020007FDF0028C1D1A4E00EA8FFF72DFE002895
:10A0300001D00646DBE769460E98887103990C2229
:10A0400051430919C872D2E7787A40084000787203
:10A05000039A0C209446424311198B7AFB2003404B
:10A060008B7214206F463874A879002804D0C87AFF
:10A07000FFF758FEAE797CE0E879400779D5B879EA
:10A08000FF2876D008273B438B72EB7A9B0708D5D5
:10A090001C2503466B43454D5B199D7E6D086D0085
:10A0A0009D76CB7AFF2B64D0A25C022A10D01C22B2
:10A0B00050433E4D072240191030FEF761F86846C4
:10A0C00080791C2148434019817EFD2211400EE019
:10A0D00061461C225143324A4C3A89184A8A1C2153
:10A0E0004843324940180283817E490849008176FD
:10A0F000012101A8FFF76EFD3BE0A8790209012AC2
:10A1000023D10007000F01281FD103980C224243DE
:10A110001219927A120718D5242148432049303960
:10A1200040181A210830FEF744F8162069460874D2
:10A1300003980C2148430119887A602210438872E1
:10A14000787A0221084378720FE003980C2250437A
:10A150000019827A80231A43827215206A4610748D
:10A16000B87A8000095801A88847002601E06846AF
:10A170000274324604A901A8FEF7ACFB6846007CD5
:10A18000122800D07FE603980C2141430919897AEF
:10A190000129F7D0FFF79EFC75E600005C20002047
:10A1A000EC250020BCC00100FFFF0000DC240020E3
:10A1B000002806D0FF21017041708170C17000201D
:10A1C00070470148704700000E800000F0B585B070
:10A1D000040036D02948002505604572857228465E
:10A1E000FFF778FC254824213038FDF7E2FF0026F0
:10A1F000FF27304601F000F821488755761C072ECE
:10A20000F7D37421684681800721C1801D481C490D
:10A2100000900831684601F057F900280FD1184E18
:10A220000120083E3070207800280CD069468888CC
:10A23000C988484381B23046103001F055F805B066
:10A24000F0BD1148FBE7114F00240D48A1B202AA4E
:10A25000083001F01DF8002809D11C206043C01906
:10A2600000231C2202A901F0D9F8002801D0357082
:10A27000E5E7641C072CE8D3E1E70000EC250020AB
:10A280006420002091A201000E800000DC24002048
:10A29000FFB55D488FB00068189F1E46002875D036
:10A2A000742F73D86846FFF783FF002803D000227D
:10A2B0001146FEF701FB0024684604700471254630
:10A2C00005970696A9B20DAA504800F0E1FF0028B4
:10A2D00006D108220DA90F98FDF776FF002817D0A8
:10A2E0006D1C072DEED368468578FF2D4ED0109853
:10A2F000032810D046481C21301AFDF717FF01270C
:10A3000007281ED204A80290119800280BD011E053
:10A3100068468570E7E7742F03D0402069460871CE
:10A320006CE02020FAE738463849A84010394968DF
:10A33000084261D0284601F09FFD2020694608713F
:10A340004AE031481C214C38301AFDF7EFFE002856
:10A350001DD02D4824213038301AFDF7E7FE0100CA
:10A360002C482CD040216A4611712B498E4245D091
:10A37000274AA9001C3A5158B1423DD104A9029183
:10A38000C07A854228D16846447025E034E004A8AC
:10A39000029020216846017144701B480A940C30D9
:10A3A0000B9058380790684680781C21484318491C
:10A3B0004018089007A80690182005900CE030225D
:10A3C00069460A714C70CF70807A800704D41148B6
:10A3D00024212438FDF7EDFE1098694602280879FB
:10A3E00010D0022108436946087104A8029001A90F
:10A3F0006846119AFEF76EFA13B0F0BD6946087907
:10A400000321EFE73843EFE7EC2500206C20002024
:10A41000DC240020E025002098C0010070B506462D
:10A4200018480D46007800280ED01749002E0ED08F
:10A43000002D0CD02868002809D0144C2168002970
:10A4400007D011480A3870BD0F48801F70BD0846FC
:10A4500070BD20600522691D201DFDF791FE287941
:10A46000A072207A0221400840000843FB221040DD
:10A470002072E0790123184308431040E071002066
:10A48000307070BD5C2000200E800000EC250020A4
:10A4900010B50E4900234A788C78A24212D0521C83
:10A4A000D2B24A70022A00D14B704A78074B920010
:10A4B00018339A580260086910180002000A0861EF
:10A4C000012010BD0360002010BD0000CC20002042
:10A4D00010B5002803D0112802D0FEF717FA10BDDE
:10A4E0000248082241681143416010BD74200020D9
:10A4F00010B51C4C217820464068012906D002295D
:10A5000029D0032912D1000717D513E0000711D471
:10A5100015481422017851430818C188A28B891A62
:10A520000904090CC18002D001F0F8FA10BDFFF750
:10A53000C9F910BD00F0B4FB10BD6069401C60613A
:10A5400000F0CEF9002803D0207801F0CDF910BD3D
:10A55000FFF754F910BD607804498000085880471F
:10A5600010BD00007420002070260020E0C0010013
:10A5700010B528DFFFF7ACFF10BD10B529DFFFF7DE
:10A58000A7FF10BD002070470020704700207047D3
:10A59000F8B506464078242104464C4324490C2251
:10A5A00050436118224A00254B6824328018AE4679
:10A5B0002F469C46002B0CD0827A1346D20908D035
:10A5C0005A0606D40D461A4A614689B2175908350B
:10A5D0008E46174C008924343B4672462946A9DF33
:10A5E0000B2819D0002800D01248012F13D1707801
:10A5F0000C214843001900890F4AA7DF00280AD020
:10A600000E49884212D0082810D0891C88420DD0EB
:10A6100011280BD00020F8BD70780C21484301238D
:10A620000019008972462946A9DFE0E70148F8BD14
:10A63000BC25002041800000FFFF00000230000028
:10A6400070B50C46014660782422084D50434019ED
:10A65000382300F0E3FE002807D16178242251431B
:10A6600049194A68521C00D14A6070BDBC250020BF
:10A67000F3B589B00D461A206946888368780C21A5
:10A6800003274843224E3B468019008907AA6946A2
:10A69000AADF002838D1687824214843741A0019A9
:10A6A00069468A8B0830FDF78FFD0028687807D04F
:10A6B000242148430119496800290DD0154E0CE0AA
:10A6C0000C2141438919897A89071DD424214843E3
:10A6D0000019FDF76EFD17E00F4E27506846828B7C
:10A6E000687824214843001942606878484300197B
:10A6F00069460830FDF744FD687824214843011974
:10A70000382324220998B04700200BB0F0BD000088
:10A71000E025002065B6010085B5010010B5FFF702
:10A7200037FF10BD10B5FFF78BFF10BD10B5FFF759
:10A730009FFF10BDF8B50746104E0125BD4030689B
:10A74000FEF790F900280DD10D4C2069284207D161
:10A75000384600F00DFC0028E06804D0284303E0F0
:10A76000A8432061F8BDA843E06020690022284387
:10A770002061A1683068FEF737F9F8BDB0C101006B
:10A78000B820002070B51B4C207900072ED41A4841
:10A790001422017851430D182E6900F00BFE01467A
:10A7A000E8882A89761E80188019FDF7BFFC216988
:10A7B0000025002909D06169814206D1E560606801
:10A7C00001210843606000200AE000F089F80028B9
:10A7D00002D00220E56003E02069002803D00320B6
:10A7E00001F0E4F970BDFFF709F870BD01F0D2F98E
:10A7F00070BD00007420002070260020F8B51E4CAB
:10A800002078002837D02069002807D00026E0688B
:10A81000002805D00025002E04D013E00126F6E71D
:10A820000125F8E7684651DF052806D0002806D044
:10A8300000221146FEF740F804E0012602E02169FB
:10A8400000988847002D12D1608869460880A0686A
:10A8500061DF052806D0002806D000221146FEF749
:10A860002BF804E0012502E0E168A0688847002E8B
:10A87000D8D0002DCFD0F8BDEC200020418805486D
:10A880000288914204D34088814201D80120704758
:10A89000002070474C2000201048018CC9B20129CB
:10A8A00017D1818C090714D1018D09060A0F03D134
:10A8B000828D1206120F0ED0090F012903D1828D4D
:10A8C0001206120F07D0032903D1808D0006000F56
:10A8D00001D000207047012070470000C00F00F039
:10A8E00070B50E481422017851430C18256900F008
:10A8F00061FD0146E08822896D1E80184019FDF730
:10A9000015FC07494A69824206D3824202D108698E
:10A91000002801D0002070BD012070BD70260020ED
:10A9200074200020800701D000207047012070476C
:10A9300030B51588EC1C9C4201D90C2030BD022496
:10A940004C5513881C255B1C9BB21380CD54138877
:10A950005B1C9BB21380012807D0022807D0032874
:10A9600007D0042807D0072030BD002004E00120D4
:10A9700002E0CC5401E00320C8541088401C108031
:10A98000002030BD10B50448017AC90702D0007814
:10A99000FEF758FD10BD000008200020F8B52C4936
:10A9A000C8680A690C780F798968864694460091D0
:10A9B0003EE00099E20055182A7836E01823534308
:10A9C0006968521CC918AB78D2B2934200D10022F8
:10A9D0000B78022B02D0032B27D123E04E680346CD
:10A9E000014603E0B14204D00B46C96900291CD0DE
:10A9F000F8E7002919D08B4208D1C069002805D199
:10AA0000144F0126BE600026B44601270E68C969AE
:10AA1000D961002909D00B689B190B6005E001740E
:10AA2000C06900E000210028F9D169789142C5D1C0
:10AA30002146641EE4B20029BBD1054962460A6181
:10AA4000C8600F71704501D00120F8BD0020F8BD2D
:10AA5000CC20002000100140F8B504463148002603
:10AA6000C168009107784EE02E48F90080680D1803
:10AA700043E0002C02D02046E4691FE0287818212A
:10AA800041436A68401CC0B251182870AA789042AD
:10AA900000D12E700A784868012A30D1027C002A41
:10AAA0002DD18A684260CA6882600A69C2604969B9
:10AAB00081611C490979002900D046601949436821
:10AAC0000A699C46991A0902174B090A994202D24F
:10AAD0008268891807E06146511A09028268090AEA
:10AAE0008A4202D9511A016000E0066046600121E5
:10AAF00086600174C66101F0C3F8002CB9D12878D2
:10AB000069788842BAD138467F1EFFB20028ABD19F
:10AB10000448C1680098814201D00120F8BD00209E
:10AB2000F8BD0000CC200020FFFF7F00002398B07C
:10AB3000504A05211846FDF70FFF002803D00022D8
:10AB40001146FDF7B9FE4C4A4C490320FEF72AFC9A
:10AB5000002803D000221146FDF7AEFE6946002012
:10AB6000FEF7FAFA002803D000221146FDF7A4FEF2
:10AB700068460078022872D0002168460171FEF70D
:10AB800093FA68460079FFF7EDF80120014610318D
:10AB9000684601730F223AA103A87CDF002803D086
:10ABA00000221146FDF788FE0024009450216846DB
:10ABB00001940180A0214180FF2184809131C180D6
:10ABC0007ADF002803D000221146FDF775FE3821F8
:10ABD00001A8FDF7EEFA0221684601710125857191
:10ABE0000621C17185822A48069024210FA8FDF70D
:10ABF000E0FA10A80572FF202D301390B4200094C5
:10AC00001490244B0FAA002101A8FDF789FF00280A
:10AC100003D000221146FDF74FFE1C216846FDF7C8
:10AC2000C8FA0520C00301900F2000040290009490
:10AC3000032168460173C4810474174805901748BE
:10AC400006906846FEF768F9002803D000221146F6
:10AC5000FDF732FE0320FEF76FF803E0FFE7012166
:10AC60008BE748DF0028FCD000221146FDF724FEC8
:10AC7000F7E700000421002005930100CD0C00003F
:10AC80004E6F726469635F54656D706C61746500CA
:10AC90000420002049B101006DB10100319A01008A
:10ACA00010B504480822416891434160007800F0E3
:10ACB0001BFE10BD7420002070B5144682880E461D
:10ACC00005462088111D4118921C994201D8FE2A80
:10ACD00001D90C2070BD521C32542088FF21401C29
:10ACE00080B2208031542088401C80B2208081199D
:10ACF000288801F0BBF82188401880B22080AA88FB
:10AD0000002A09D0A968002908D08019FDF738FA6F
:10AD10002088A98840182080002070BD072070BDC1
:10AD2000F8B50F46017814460546012902D1687826
:10AD3000002806D02088821C9A422DD8012902D0F2
:10AD400006E00720F8BD69784118891C994223D88C
:10AD5000181A801E86B2684606802188B81C08181A
:10AD600069467DDF0028EDD12878022805D16946A3
:10AD70000988B14201D809210AE00821012805D13A
:10AD80006878B04202D86A46108001E068460680C2
:10AD900068460088FE2801D90C20F8BD2288401C96
:10ADA000B8542088401C80B22080395420886946DD
:10ADB000401C20800988401820800020F8BD002019
:10ADC0007047002070470020704700008207D30EB4
:10ADD000FF229A408907090E10B5994000280BDA26
:10ADE00003071B0F083B9C080C4BA400E318DC690D
:10ADF00094430C43DC6107E08408094BA400E41889
:10AE0000236893430B432360C106C90E0120884089
:10AE1000044908600449086010BD000000ED00E02E
:10AE200000E400E080E200E000E100E0F3B581B082
:10AE30000F46019800F000FA012400281E4E0198E8
:10AE400017D0FEF751FC80192030007F80090328BD
:10AE500002D0012806D007E01848006901998C400B
:10AE6000204201D1022100E00321019800F040F9C5
:10AE7000FEBD00F0EDF90028FAD00198FEF734FC91
:10AE800005468100C81D0E4AF93089180A6980B24A
:10AE900022430A610B49401800210160002FE7D0CE
:10AEA0000198FEF721FC800030580028E0D00648C9
:10AEB000AC404460FEBD000010260020000500509C
:10AEC000006500400060004000630040FEB504469D
:10AED00023480E460019202141560027C817134663
:10AEE000401C01D0082738E0F27819462046FEF7CA
:10AEF000D7FB0546401C2FD0B078002807D0194852
:10AF0000A1000918086802229043086007E00021A8
:10AF10007378204600910A46019100F0D7F8F07846
:10AF2000002810D01048AA001018317802690F4B81
:10AF30001A400261E206D20C8907890B0A430169B3
:10AF40000A43026109E00648327840192030017F47
:10AF500092011143017700E004273846FEBD00004E
:10AF6000102600200007005000650040FFE0FCFFB5
:10AF700003490969C140C807C00F00D001207047CC
:10AF80000005005070B5124D2879002801D0082026
:10AF900070BD0F4900204039421E0B182033401C61
:10AFA000C0B21A702028F8D300242046FEF76AFBAE
:10AFB000641CE4B2082CF8D303210620FFF706FF37
:10AFC00001200449C007486001202871002070BD9D
:10AFD000502600200063004002480079002800D07D
:10AFE0000120704750260020F3B585B0054606982D
:10AFF0001821484332494618FF21341D253128467F
:10B0000000F090F80746E189284600F08BF80146E9
:10B010000020FF222532A850FF221D32A850FF2217
:10B020000932A850121FA8503846084346D0002FB6
:10B0300001D0052105E02078002801D0022100E0A0
:10B040000321069887001F48C05900F0DDFC1D4908
:10B05000A078091F002817D00020B0701A484DC8EA
:10B06000009001A84CC0606801906089029009209E
:10B07000C0012A18506C5064800701D5022000E0FE
:10B0800004206A46107313E060892289904215D328
:10B0900000200090019002900390B070207800286A
:10B0A00000D001206A4610706068019060890290AB
:10B0B0000448C9590838C2596846904707B0F0BDDE
:10B0C00054270020A020002018C1010030B55200F4
:10B0D0000A439900039C0A432102049D0A43290460
:10B0E0000A43024980004018026030BD000700504A
:10B0F000820006481018026803231B049A4302606A
:10B10000026809040A43026070470000000700500B
:10B11000034940180068012800D000207047000053
:10B12000006000404058002800D00120704740587F
:10B13000002800D0012070470322120280184068C6
:10B14000084000D00120704710B500280BD003281C
:10B1500008D10220FEF718F9002803D0002211467A
:10B16000FDF7AAFB10BD00F0A4FB10BD10B50078E0
:10B17000002809D105483B21408876DF002803D00C
:10B1800000221146FDF798FB10BD000000200020B2
:10B1900010B54179182251430F4A8918FF22053210
:10B1A0004A82036800249C5042790C4B92009A58C2
:10B1B000091D002A0AD00368032424021B190A6906
:10B1C0009A6002220A61016809194A600268012135
:10B1D00011620068416110BD5427002098200020B2
:10B1E0000021425C002A01D001207047491C062939
:10B1F000F7D300207047000070B505461C200D49AC
:10B2000068434418204611300621FCF7D2FF20463F
:10B210001021FCF7CEFFFF2121740020A176C0434E
:10B220002083284600F028FE024A0020A9001C3A8C
:10B23000505070BDDC2400200449081820214156DC
:10B24000042901DB012070470020704710260020F0
:10B250000449081820214156042901D201207047D1
:10B26000002070471026002007490979490701D4BA
:10B2700008207047002804D0044949780160002064
:10B2800070470E20704700007420002070260020B8
:10B2900070B5134B1B795B0701D4082070BD0028E3
:10B2A00017D0002A15D00368022B10D20C240D4DA4
:10B2B0005C432E59002E0AD04668601904894589DE
:10B2C00040686143654371182818884203D80720F5
:10B2D00070BD0E2070BD13600020516070BD000075
:10B2E000742000203C270020FEB5044626480E4668
:10B2F0000079400701D40820FEBD002C25D020682D
:10B30000022836D20C21214D48432958002930D03B
:10B310004019418902894068514309186068814297
:10B3200027D9FFF7FFFA002811D060680190216843
:10B330000C2251434F1979680091401A39890D4602
:10B34000FCF7F4FE002914D103E00E20FEBD10200E
:10B35000FEBD29463046FCF7E9FE002909D1002E42
:10B3600007D0788900994543019849198019884286
:10B3700001D90720FEBD0020024600903346214639
:10B380000320FEF779FAFEBD742000203C27002040
:10B3900010B507484469601C06D000F00BF8014660
:10B3A0002046FCF7C3FE10BD01200007406910BD18
:10B3B0000010001001200007006980B270470000F3
:10B3C00070B5002413482546047044702846FEF7E3
:10B3D00043FA6D1C0A2DF9D30F4D6C80FFF7D8FF8F
:10B3E000C61EFFF7E7FF46430A4A0020AE60CC3294
:10B3F0006C610C214143545089180C81401C4C81D4
:10B400000228F6D32C70AC610420EC616860002047
:10B4100070BD00007026002074200020FFB5284871
:10B4200081B000791F4616460C46400702D408201A
:10B4300005B0F0BD002C1DD0019800281AD020685E
:10B44000022815D20C211F4D4843295800290FD03E
:10B4500041194A89088949684243511862689142F2
:10B4600006D9002E04D0B04202D3F119814203D98B
:10B470000720DDE70E20DBE70198FFF753FA0028ED
:10B480001BD03846FFF74EFA002816D06068FFF749
:10B4900049FA002811D060683246C1190198FCF7BA
:10B4A0006FFE009620680C2148432D58002202218F
:10B4B0002046019BA8470020BAE71020B8E700000B
:10B4C000742000203C270020F8B52C4D0446287934
:10B4D0000E46400701D40820F8BD002C20D0002ED5
:10B4E0001ED0206800281BD0FFF764FF0146A0880B
:10B4F000814213D3102811D3E08800280ED0FFF723
:10B5000047FF471EFFF756FF4743E288A188A86818
:10B510004A431218974201D3890703D00720F8BD88
:10B520000E20F8BD6988022926D031600C22144B08
:10B5300051437060CA18506020685850A08810812C
:10B54000E0885081FFF736FF0646FFF733FFA188FA
:10B55000E288401E514340183146FCF7FDFD044689
:10B56000FFF728FF0146A86861430818A8606888AB
:10B57000401C68800020F8BD0420F8BD7420002025
:10B580003C270020F8B5044621481E4600791546A0
:10B590000F46400701D40820F8BD002F1CD0002C16
:10B5A0001AD02168022915D20C204143194842586B
:10B5B000002A0FD008184289018940684A431018B0
:10B5C0006268904206D9002D04D0A94202D3A8197E
:10B5D000884203D90720F8BD0E20F8BD3846FFF792
:10B5E000A1F9002811D03046FFF79CF900280CD0B3
:10B5F0006068FFF797F9002807D02B463A462146A6
:10B6000001200096FEF738F9F8BD1020F8BD0000C3
:10B61000742000203C27002010B51149024608780C
:10B62000002811D004280FD0022A16D0032A0BD1EB
:10B630000A79120711D48A69521C8A61032A08D038
:10B64000022802D000F050F910BD487800F0AEFAA0
:10B6500010BD0D20FDF75AF910BDFEF749FF10BDD2
:10B6600074200020F8B5044621481E46007915468E
:10B670000F46400701D40820F8BD002F1CD0002C35
:10B680001AD02168022915D20C204143194842588A
:10B69000002A0FD008184289018940684A431018CF
:10B6A0006268904206D9002D04D0A94202D3A8199D
:10B6B000884203D90720F8BD0E20F8BD3846FFF7B1
:10B6C00031F9002811D03046FFF72CF900280CD0B2
:10B6D0006068FFF727F9002807D02B463A46214635
:10B6E00004200096FEF7C8F8F8BD1020F8BD000051
:10B6F000742000203C27002070B501240B49600411
:10B7000008600B4940108860094940398860094D3C
:10B710006C602F20FCF7DEFCAC60074D00242F206E
:10B720002C61FCF7D7FCEC7070BD000080E100E0FC
:10B730004013014000100140CC20002010B5417999
:10B7400018225143134A0B2489180268E401CB796B
:10B75000121993600268012313620022FF230A7406
:10B7600009334B820468E25042790B4B92009A589D
:10B77000091D002A0AD0046803231B02E4180A6981
:10B78000A26004220A610168C9184A6000F026FB21
:10B7900010BD00005427002098200020FF210748FA
:10B7A000093100224250064881690648037DC2687B
:10B7B000D154017D491C01757047000000200040F4
:10B7C000002500405826002010B541791822514329
:10B7D000094A0523891802681B02D2189269CC898C
:10B7E0008B681A55CA89521C92B2CA8189898A42C9
:10B7F00001D200F0F3FA10BD542700201FB501223A
:10B8000069460A7008720448C16801910021C17438
:10B8100006C8684690471FBD5826002010B500F0A6
:10B82000DDFA10BDFFB50746806A81B014460028D6
:10B830003DD0002538462030009033E00C20B96A16
:10B8400068430E18B088801CFE2802D90C2005B071
:10B85000F0BD22880299401C885420881622401C82
:10B8600080B2208002990A542088401C80B2208037
:10B8700002994118308800F0F9FA2188401880B206
:10B880002080B288002A0AD0B16800290FD0029B1C
:10B89000C018FCF775FC2088B188401820806D1C0A
:10B8A0000098EDB2007BA842C8D80020CFE707205F
:10B8B000CDE710B50020FDF767FD002803D000227A
:10B8C0001146FCF7F9FFFDF7ADFC002803D000227C
:10B8D0001146FCF7F1FF3CDF002803D0002211469F
:10B8E000FCF7EAFF10BD000010B50F4900280870F2
:10B8F00009D0012811D0022812D0032802D14869AA
:10B90000FEF736FE10BD00208861C8610748407808
:10B910000028F7D0FDF784FF10BD00F0FFF810BD40
:10B9200000F038F810BD00007420002070260020C0
:10B9300010B508461146C046C04610BD002803D0C9
:10B940000249C860002070470E207047EC2000209C
:10B9500070B5002901D08C0701D0072070BD064CBE
:10B960000125A16062800549636010DF0028F5D1E0
:10B97000257016202EDF70BDEC20002031B90100AB
:10B98000002803D002490861002070470E2070474C
:10B99000EC200020F8B5164C1422606840084000E6
:10B9A00060601448017851430E183769FFF702FDB3
:10B9B00001463846FCF7BAFB05466061FFF7FAFC22
:10B9C0000146F0887F1EC019FCF7B0FB02228542B9
:10B9D000606801D1104300E090436060E16810406E
:10B9E000084303D0002000F0E1F8F8BD0220FAE798
:10B9F000742000207026002010B502484069FEF730
:10BA0000B7FD10BD74200020F0B4427918235A43CA
:10BA10000D4B0F4ED418627895000C4A53590022F2
:10BA200075590DE0D6009E5D8E4208D1D100C9182F
:10BA30004A7862704968002904D0F0BC0847521C5B
:10BA40009542EFD8F0BC704754270020A420002076
:10BA500004C1010010B5FFF79BFC441EFFF7AAFCD0
:10BA60004443FFF7A7FC04494A69521E5043CA6881
:10BA70002146FEF782FD10BD74200020F8B5104865
:10BA80001422017851430C182569FFF793FC0146F5
:10BA9000E088228980184019FCF748FB0F46FFF721
:10BAA00077FC461EFFF786FC4643E0882289F119A1
:10BAB0008018044A40191269FEF75FFDF8BD0000C6
:10BAC000702600207420002070B5FFF773FC054637
:10BAD000FFF75EFC441EFFF76DFC60432946FCF750
:10BAE00025FBFEF745FD70BD70B5FFF763FC8608CA
:10BAF000FFF760FC0749496948430446FFF748FCE3
:10BB0000451EFFF757FC684332462146FEF735FDD8
:10BB100070BD0000742000200020704770B51448EC
:10BB20001422017851430C18241DFFF743FC61884F
:10BB3000104E884211D2FFF73DFC61880D1AFFF7C5
:10BB400039FC8208A188E068401821694019491928
:10BB5000FEF713FDFFF72EFC07E0A288E0688018CF
:10BB60008A082169FEF709FD6088F06170BD000058
:10BB7000702600207420002010B5054800790007C9
:10BB800003D4012000F012F810BD00F003F810BD3E
:10BB90007420002010B50448082241689143416098
:10BBA000407800F003F810BD74200020024948706E
:10BBB000024980000858004774200020CCC00100D2
:10BBC00010B50446FFF728FD2046FDF775F810BDB7
:10BBD00010B505480079000702D4FDF70FFE10BD2F
:10BBE000FFF7D8FF10BD000074200020FEB51F4CE9
:10BBF00000252769E06802906846FEF749FC01903D
:10BC0000FEF7CCFE06460198002822D000230098BB
:10BC1000E16817E00E680A46864202D9301A0860C9
:10BC200012E0801BF31800261660D668D169B4466E
:10BC3000002E07D0FE183602360A56606646966019
:10BC4000D56115460029E5D12846E160FEF704FFDD
:10BC500006E02846FEF700FF002801D1002E02D0A2
:10BC60000298FDF74DFE00202071FEBDCC20002083
:10BC700001200249000508607047000000E200E072
:10BC800010B50E4BD968002906D002680C68A24294
:10BC900004D8A21A0A60C161D86010BD0B4604E046
:10BCA0000B46C969121B002904D00C689442F7D3D3
:10BCB000A41A0C600260C161D86110BDCC200020C4
:10BCC000F8B51E4DEC68002C36D01D4800274068A2
:10BCD0002969401A0602360A2068B0421AD8361A74
:10BCE000C7192246107CE469002811D00020107486
:10BCF0006B69002B09D0916950699847002807D0DB
:10BD000000221146FCF7D8FD02E05169906988478E
:10BD1000002CE1D16978A878814206D1401CC0B2DC
:10BD2000A870022801D10020A87004490006800DE7
:10BD300018310F50FFF79CFFF8BD0000CC20002009
:10BD400000150140FF2107481D31002242500648DE
:10BD5000028A8168895C028A521C02820348C1619E
:10BD600070470000002000405826002000250040B9
:10BD700010B5417918225143054A8918CA89521CC5
:10BD800092B2CA8189898A4201D200F013F810BDAB
:10BD9000542700201FB500216A4611701072044814
:10BDA00082680192817406C8684690471FBD0000F2
:10BDB0005826002010B5417918225143064A8918A7
:10BDC0008B68C9890268595C05231B02D218D161AE
:10BDD00000F004F810BD00005427002070B505469F
:10BDE0004079182148431F4944182868FF30FF3024
:10BDF00002300168890889000160E089A189401C3E
:10BE0000241D884202D1607800280ED001262868BF
:10BE1000FF30FF300230016831430160207B202178
:10BE20002173296801220A5070BDFF200530E0818E
:10BE30000226296800220A5068790B4980000858B8
:10BE400000280AD02A680320000212182169916094
:10BE5000022121612A681018416004212846FFF759
:10BE6000D3FDD4E754270020982000200870000A52
:10BE7000487002207047000001218140024842685A
:10BE80008A434260704700005C20002038B51549A5
:10BE9000154A488890420FD04A78144C521CD2B2AE
:10BEA0004A70237B934208D3091D75DF002803D015
:10BEB000A169002900D0884738BD00254D70217C3C
:10BEC000002907D03B2176DF002803D0A169002993
:10BED00000D0884761690029EED068460570884720
:10BEE00038BD000048200020FFFF0000A4240020EF
:10BEF00012494868C005C00D19D0103840B200285A
:10BF000007DA0207120F083A920892005118C9691D
:10BF100004E081080A4A8900891809688007C00E70
:10BF2000C1400806800F012803D0032803D0022057
:10BF300070470020704701207047000000ED00E0CE
:10BF400000E400E042788378521CD2B2934200D1E0
:10BF500000220378934201D1002070470A704168A3
:10BF600040781822504308187047FFB583B0164632
:10BF70000C9D0D9C1F46022200950194039800F031
:10BF80000CF8002807D13B46102231460095019459
:10BF9000039800F002F807B0F0BDFFB583B0074684
:10BFA00000200C9C8646268805463AE07868A90061
:10BFB00042181188684681805188C18000226946F4
:10BFC00001A865DF002839D16846017805988142CB
:10BFD00026D17046002801D0002200E002222088ED
:10BFE000891842180D998A4227D8714600290AD12A
:10BFF000401C80B22080069A049911542088401C6D
:10C00000208001208646218806980A18694601A8E2
:10C0100065DF002812D16946208809784018208001
:10C020006D1C3888A842C1DC704600280AD02088E0
:10C03000801B401E80B2FF2802D90C2007B0F0BD43
:10C04000069988550020F9E70179002902D1007B83
:10C05000002800D001207047142300203423002042
:10C0600060230020110000001200000013000000F7
:10C0700014000000110003003992010012000300B7
:10C0800039920100130003003992010014000300EB
:10C090003992010084240020FFFFFFFFC7AD01009B
:10C0A00071A601008DA501002DA70100C3AD0100FF
:10C0B00041A6010089A5010025A70100BFAD01002F
:10C0C00091A5010085A501001DA70100C9BA0100C5
:10C0D000E9BA0100F9B901007DBA010055BA0100C1
:10C0E00079BB01004D9B0100F99A0100D1BB010011
:10C0F00085A7010000000000010000000000980179
:10C100000300000002000000050000000400000021
:10C110000300000003000000020000000000000017
:10C120000000000000000000000100005585010033
:10C13000010200003DB701000201000071BD0100D5
:10C14000010200003DB7010000010000B5BD010083
:10C1500004030000000000000504000091B101008C
:10C16000010200001DB8010003020000C9B7010070
:10C1700004030000000000000504000091B101006C
:10C1800003000000C9B701000200000071BD0100FA
:10C190000500000041850100030000004185010009
:10C1A00002000000418501000500000041850100FA
:10C1B0006C27002003000000D8C1010000200020EF
:10C1C0000401000022850100DCC2010004210020DE
:10C1D0008C0E0000328501000000FFFF0A180100EC
:10C1E000000000000000000000000000000000004F
:10C1F000000000000000000000000000000000003F
:10C200000000000000000000FFFF00000000000030
:10C21000000000000000000000000000000000001E
:10C22000000000000000000000000000000000000E
:10C2300000000000000000000000000000000000FE
:10C2400000000000000000000000000000000000EE
:10C2500000000000000000000000000000000000DE
:10C2600000000000000000000000000000000000CE
:10C2700000000000000000000000000028C10100D4
:10C2800038C1010060C1010080C1010098C10100F6
:10C29000000000000000000000000000000000009E
:10C2A000000000000000000000000000000000008E
:10C2B000000000000000000000000000000000007E
:10C2C000000000000000000000000000000000006E
:0CC2D00000000000000000000024F4004A
:04000005000180C1B5
:00000001FF
